
Test Cases for 2crow:

Step 1: (merchant, 1 or 2 inputs)

inputs:

5JAKQsWxu94xKv4tQR8bGJcsNfDVtAEv5X1G583FaBqppxkuXGV
03A9FA2D0A76182A12D14284926D4392C71A6181BAE80046DD40607B953F2D1E02
0.577

result:

2crow_1_03A9FA2D0A76182A12D14284926D4392C71A6181BAE80046DD40607B953F2D1E02_0.577

*************
Step 2: (customer, 2 inputs)

inputs: 

2crow_1_03A9FA2D0A76182A12D14284926D4392C71A6181BAE80046DD40607B953F2D1E02_0.577
5JM9ZrYYggNc4YRsKmsoJHbAu3zHf41EtAsK82R8ZARBwTFbqLB
03872A35A2D32AF49BAB886D971C038FEFF192ACDDA9AE3DF9A2BEFACC689E7B1E

result:

Escrow address: 3AgakpYrahVmDZ86BN7ySZ4cfsyKRfLxm8

2crow_2_522103a9fa2d0a76182a12d14284926d4392c71a6181bae80046dd40607b953f2d1e022103872a35a2d32af49bab886d971c038feff192acdda9ae3df9a2befacc689e7b1e52ae

*************
Step 3: (merchant, 3 inputs)

txid
595a32ee30305a0cd83f3d5155070109113e185d0227bbb52e89e21ac25ed083

n
0

scriptsig
a91462a41f87cffeb47430b627bd62eca4649f70ae8e87

522103a9fa2d0a76182a12d14284926d4392c71a6181bae80046dd40607b953f2d1e022103872a35a2d32af49bab886d971c038feff192acdda9ae3df9a2befacc689e7b1e52ae

addy
16wtTEgdGAsUnfffFmQrbW9EvSxahcyVTD

privkey
5JAKQsWxu94xKv4tQR8bGJcsNfDVtAEv5X1G583FaBqppxkuXGV

amt
0.0019

*unsigned from coinb.in*
010000000183d05ec21ae2892eb5bb27025d183e1109010755513d3fd80c5a3030ee325a590000000047522103a9fa2d0a76182a12d14284926d4392c71a6181bae80046dd40607b953f2d1e022103872a35a2d32af49bab886d971c038feff192acdda9ae3df9a2befacc689e7b1e52aeffffffff0130e60200000000001976a914413a0a861b85fb1293cdf15b6e767b4496b70f8c88ac00000000


result:

Here is your step 3 code: 2crow_3_010000000183d05ec21ae2892eb5bb27025d183e1109010755513d3fd80c5a3030ee325a590000000092004830450221009d9e4c7f05abbeab34c961736fa5fbd3e9c45d90681d352f2ae4f2b7fcd522a90220681c6a668f801b781c2b9dd9c8f444b6a5a2d728efaf733658a850b86de44fff0147522103a9fa2d0a76182a12d14284926d4392c71a6181bae80046dd40607b953f2d1e022103872a35a2d32af49bab886d971c038feff192acdda9ae3df9a2befacc689e7b1e52aeffffffff0130e60200000000001976a914413a0a861b85fb1293cdf15b6e767b4496b70f8c88ac00000000

********
---  

Step 4 input:

2crow_3_010000000183d05ec21ae2892eb5bb27025d183e1109010755513d3fd80c5a3030ee325a590000000092004830450221009d9e4c7f05abbeab34c961736fa5fbd3e9c45d90681d352f2ae4f2b7fcd522a90220681c6a668f801b781c2b9dd9c8f444b6a5a2d728efaf733658a850b86de44fff0147522103a9fa2d0a76182a12d14284926d4392c71a6181bae80046dd40607b953f2d1e022103872a35a2d32af49bab886d971c038feff192acdda9ae3df9a2befacc689e7b1e52aeffffffff0130e60200000000001976a914413a0a861b85fb1293cdf15b6e767b4496b70f8c88ac00000000

5JM9ZrYYggNc4YRsKmsoJHbAu3zHf41EtAsK82R8ZARBwTFbqLB







Reference keypairs: address, priv, pub

1,"1FwwcJF2H9PNGCG1adi4ZGE5HNrJtML4bW","5JAKQsWxu94xKv4tQR8bGJcsNfDVtAEv5X1G583FaBqppxkuXGV",
"03A9FA2D0A76182A12D14284926D4392C71A6181BAE80046DD40607B953F2D1E02"

2,"1ApPjqCseaYRD3zEg2VB9Vc3pmiLAKit4W","5JM9ZrYYggNc4YRsKmsoJHbAu3zHf41EtAsK82R8ZARBwTFbqLB",
"03872A35A2D32AF49BAB886D971C038FEFF192ACDDA9AE3DF9A2BEFACC689E7B1E"

redeem script
522103a9fa2d0a76182a12d14284926d4392c71a6181bae80046dd40607b953f2d1e022103872a35a2d32af49bab886d971c038feff192acdda9ae3df9a2befacc689e7b1e52ae


3,"1JGFfxnTosM5m4ijyDKFExdPHc9YQuAtoC","5JFGb96mHHwoUHJegQXXX3uQTk9sXCFHX2EV285j5Z4wGkGsmPT"
